{
  "address": "0x81ce0A3DBF309fDcF6Df1b28D327AdD9E81CaeEa",
  "abi": [
    {
      "inputs": [],
      "stateMutability": "nonpayable",
      "type": "constructor"
    },
    {
      "anonymous": false,
      "inputs": [
        {
          "indexed": true,
          "internalType": "address",
          "name": "owner",
          "type": "address"
        },
        {
          "indexed": true,
          "internalType": "address",
          "name": "approved",
          "type": "address"
        },
        {
          "indexed": true,
          "internalType": "uint256",
          "name": "tokenId",
          "type": "uint256"
        }
      ],
      "name": "Approval",
      "type": "event"
    },
    {
      "anonymous": false,
      "inputs": [
        {
          "indexed": true,
          "internalType": "address",
          "name": "owner",
          "type": "address"
        },
        {
          "indexed": true,
          "internalType": "address",
          "name": "operator",
          "type": "address"
        },
        {
          "indexed": false,
          "internalType": "bool",
          "name": "approved",
          "type": "bool"
        }
      ],
      "name": "ApprovalForAll",
      "type": "event"
    },
    {
      "anonymous": false,
      "inputs": [
        {
          "indexed": true,
          "internalType": "bytes32",
          "name": "role",
          "type": "bytes32"
        },
        {
          "indexed": true,
          "internalType": "bytes32",
          "name": "previousAdminRole",
          "type": "bytes32"
        },
        {
          "indexed": true,
          "internalType": "bytes32",
          "name": "newAdminRole",
          "type": "bytes32"
        }
      ],
      "name": "RoleAdminChanged",
      "type": "event"
    },
    {
      "anonymous": false,
      "inputs": [
        {
          "indexed": true,
          "internalType": "bytes32",
          "name": "role",
          "type": "bytes32"
        },
        {
          "indexed": true,
          "internalType": "address",
          "name": "account",
          "type": "address"
        },
        {
          "indexed": true,
          "internalType": "address",
          "name": "sender",
          "type": "address"
        }
      ],
      "name": "RoleGranted",
      "type": "event"
    },
    {
      "anonymous": false,
      "inputs": [
        {
          "indexed": true,
          "internalType": "bytes32",
          "name": "role",
          "type": "bytes32"
        },
        {
          "indexed": true,
          "internalType": "address",
          "name": "account",
          "type": "address"
        },
        {
          "indexed": true,
          "internalType": "address",
          "name": "sender",
          "type": "address"
        }
      ],
      "name": "RoleRevoked",
      "type": "event"
    },
    {
      "anonymous": false,
      "inputs": [
        {
          "indexed": true,
          "internalType": "address",
          "name": "from",
          "type": "address"
        },
        {
          "indexed": true,
          "internalType": "address",
          "name": "to",
          "type": "address"
        },
        {
          "indexed": true,
          "internalType": "uint256",
          "name": "tokenId",
          "type": "uint256"
        }
      ],
      "name": "Transfer",
      "type": "event"
    },
    {
      "inputs": [],
      "name": "DEFAULT_ADMIN_ROLE",
      "outputs": [
        {
          "internalType": "bytes32",
          "name": "",
          "type": "bytes32"
        }
      ],
      "stateMutability": "view",
      "type": "function"
    },
    {
      "inputs": [],
      "name": "MINTER_ROLE",
      "outputs": [
        {
          "internalType": "bytes32",
          "name": "",
          "type": "bytes32"
        }
      ],
      "stateMutability": "view",
      "type": "function"
    },
    {
      "inputs": [
        {
          "internalType": "address",
          "name": "to",
          "type": "address"
        },
        {
          "internalType": "uint256",
          "name": "tokenId",
          "type": "uint256"
        }
      ],
      "name": "approve",
      "outputs": [],
      "stateMutability": "nonpayable",
      "type": "function"
    },
    {
      "inputs": [
        {
          "internalType": "address",
          "name": "owner",
          "type": "address"
        }
      ],
      "name": "balanceOf",
      "outputs": [
        {
          "internalType": "uint256",
          "name": "",
          "type": "uint256"
        }
      ],
      "stateMutability": "view",
      "type": "function"
    },
    {
      "inputs": [
        {
          "internalType": "uint256",
          "name": "tokenId",
          "type": "uint256"
        }
      ],
      "name": "burn",
      "outputs": [],
      "stateMutability": "nonpayable",
      "type": "function"
    },
    {
      "inputs": [
        {
          "internalType": "address",
          "name": "creator",
          "type": "address"
        }
      ],
      "name": "creationsOf",
      "outputs": [
        {
          "internalType": "uint256[]",
          "name": "",
          "type": "uint256[]"
        }
      ],
      "stateMutability": "view",
      "type": "function"
    },
    {
      "inputs": [
        {
          "internalType": "uint256",
          "name": "tokenId",
          "type": "uint256"
        }
      ],
      "name": "creatorOf",
      "outputs": [
        {
          "internalType": "address",
          "name": "",
          "type": "address"
        }
      ],
      "stateMutability": "view",
      "type": "function"
    },
    {
      "inputs": [
        {
          "internalType": "uint256",
          "name": "tokenId",
          "type": "uint256"
        }
      ],
      "name": "getApproved",
      "outputs": [
        {
          "internalType": "address",
          "name": "",
          "type": "address"
        }
      ],
      "stateMutability": "view",
      "type": "function"
    },
    {
      "inputs": [
        {
          "internalType": "bytes32",
          "name": "role",
          "type": "bytes32"
        }
      ],
      "name": "getRoleAdmin",
      "outputs": [
        {
          "internalType": "bytes32",
          "name": "",
          "type": "bytes32"
        }
      ],
      "stateMutability": "view",
      "type": "function"
    },
    {
      "inputs": [
        {
          "internalType": "bytes32",
          "name": "role",
          "type": "bytes32"
        },
        {
          "internalType": "address",
          "name": "account",
          "type": "address"
        }
      ],
      "name": "grantRole",
      "outputs": [],
      "stateMutability": "nonpayable",
      "type": "function"
    },
    {
      "inputs": [
        {
          "internalType": "bytes32",
          "name": "role",
          "type": "bytes32"
        },
        {
          "internalType": "address",
          "name": "account",
          "type": "address"
        }
      ],
      "name": "hasRole",
      "outputs": [
        {
          "internalType": "bool",
          "name": "",
          "type": "bool"
        }
      ],
      "stateMutability": "view",
      "type": "function"
    },
    {
      "inputs": [
        {
          "internalType": "address",
          "name": "owner",
          "type": "address"
        },
        {
          "internalType": "address",
          "name": "operator",
          "type": "address"
        }
      ],
      "name": "isApprovedForAll",
      "outputs": [
        {
          "internalType": "bool",
          "name": "",
          "type": "bool"
        }
      ],
      "stateMutability": "view",
      "type": "function"
    },
    {
      "inputs": [
        {
          "internalType": "string",
          "name": "uri",
          "type": "string"
        },
        {
          "internalType": "bytes32",
          "name": "hash",
          "type": "bytes32"
        },
        {
          "internalType": "uint16",
          "name": "royalties",
          "type": "uint16"
        }
      ],
      "name": "mint",
      "outputs": [],
      "stateMutability": "nonpayable",
      "type": "function"
    },
    {
      "inputs": [],
      "name": "name",
      "outputs": [
        {
          "internalType": "string",
          "name": "",
          "type": "string"
        }
      ],
      "stateMutability": "view",
      "type": "function"
    },
    {
      "inputs": [
        {
          "internalType": "uint256",
          "name": "tokenId",
          "type": "uint256"
        }
      ],
      "name": "ownerOf",
      "outputs": [
        {
          "internalType": "address",
          "name": "",
          "type": "address"
        }
      ],
      "stateMutability": "view",
      "type": "function"
    },
    {
      "inputs": [
        {
          "internalType": "bytes32",
          "name": "role",
          "type": "bytes32"
        },
        {
          "internalType": "address",
          "name": "account",
          "type": "address"
        }
      ],
      "name": "renounceRole",
      "outputs": [],
      "stateMutability": "nonpayable",
      "type": "function"
    },
    {
      "inputs": [
        {
          "internalType": "bytes32",
          "name": "role",
          "type": "bytes32"
        },
        {
          "internalType": "address",
          "name": "account",
          "type": "address"
        }
      ],
      "name": "revokeRole",
      "outputs": [],
      "stateMutability": "nonpayable",
      "type": "function"
    },
    {
      "inputs": [
        {
          "internalType": "uint256",
          "name": "tokenId",
          "type": "uint256"
        },
        {
          "internalType": "uint256",
          "name": "value",
          "type": "uint256"
        }
      ],
      "name": "royaltyInfo",
      "outputs": [
        {
          "internalType": "address",
          "name": "receiver",
          "type": "address"
        },
        {
          "internalType": "uint256",
          "name": "royaltyAmount",
          "type": "uint256"
        }
      ],
      "stateMutability": "view",
      "type": "function"
    },
    {
      "inputs": [
        {
          "internalType": "address",
          "name": "from",
          "type": "address"
        },
        {
          "internalType": "address",
          "name": "to",
          "type": "address"
        },
        {
          "internalType": "uint256",
          "name": "tokenId",
          "type": "uint256"
        }
      ],
      "name": "safeTransferFrom",
      "outputs": [],
      "stateMutability": "nonpayable",
      "type": "function"
    },
    {
      "inputs": [
        {
          "internalType": "address",
          "name": "from",
          "type": "address"
        },
        {
          "internalType": "address",
          "name": "to",
          "type": "address"
        },
        {
          "internalType": "uint256",
          "name": "tokenId",
          "type": "uint256"
        },
        {
          "internalType": "bytes",
          "name": "_data",
          "type": "bytes"
        }
      ],
      "name": "safeTransferFrom",
      "outputs": [],
      "stateMutability": "nonpayable",
      "type": "function"
    },
    {
      "inputs": [
        {
          "internalType": "address",
          "name": "operator",
          "type": "address"
        },
        {
          "internalType": "bool",
          "name": "approved",
          "type": "bool"
        }
      ],
      "name": "setApprovalForAll",
      "outputs": [],
      "stateMutability": "nonpayable",
      "type": "function"
    },
    {
      "inputs": [
        {
          "internalType": "bytes4",
          "name": "interfaceId",
          "type": "bytes4"
        }
      ],
      "name": "supportsInterface",
      "outputs": [
        {
          "internalType": "bool",
          "name": "",
          "type": "bool"
        }
      ],
      "stateMutability": "view",
      "type": "function"
    },
    {
      "inputs": [],
      "name": "symbol",
      "outputs": [
        {
          "internalType": "string",
          "name": "",
          "type": "string"
        }
      ],
      "stateMutability": "view",
      "type": "function"
    },
    {
      "inputs": [
        {
          "internalType": "uint256",
          "name": "tokenId",
          "type": "uint256"
        }
      ],
      "name": "tokenURI",
      "outputs": [
        {
          "internalType": "string",
          "name": "",
          "type": "string"
        }
      ],
      "stateMutability": "view",
      "type": "function"
    },
    {
      "inputs": [
        {
          "internalType": "address",
          "name": "from",
          "type": "address"
        },
        {
          "internalType": "address",
          "name": "to",
          "type": "address"
        },
        {
          "internalType": "uint256",
          "name": "tokenId",
          "type": "uint256"
        }
      ],
      "name": "transferFrom",
      "outputs": [],
      "stateMutability": "nonpayable",
      "type": "function"
    }
  ],
  "transactionHash": "0xf10a154e7daa36ab8bdc09cefc3e8cd4437bacf6033e638db1e933e4d6ed268d",
  "args": [],
  "solcInputHash": "967652a93bf46e10de6c47bdd8152bec",
  "bytecode": "0x60806040523480156200001157600080fd5b506040805180820182526007815266686f66612e696f60c81b602080830191825283518085019094526004845263484f464160e01b9084015281519192916200005d916000916200015c565b508051620000739060019060208401906200015c565b506200008591506000905033620000b7565b620000b17f9f2df0fed2c77648de5860a4cc508cd0818c85b8b8a1ab4ceeef8d981c8956a633620000b7565b6200023f565b60008281526007602090815260408083206001600160a01b038516845290915290205460ff16620001585760008281526007602090815260408083206001600160a01b03851684529091529020805460ff19166001179055620001173390565b6001600160a01b0316816001600160a01b0316837f2f8788117e7eff1d82e926ec794901d17c78024a50270940304540a733656f0d60405160405180910390a45b5050565b8280546200016a9062000202565b90600052602060002090601f0160209004810192826200018e5760008555620001d9565b82601f10620001a957805160ff1916838001178555620001d9565b82800160010185558215620001d9579182015b82811115620001d9578251825591602001919060010190620001bc565b50620001e7929150620001eb565b5090565b5b80821115620001e75760008155600101620001ec565b600181811c908216806200021757607f821691505b602082108114156200023957634e487b7160e01b600052602260045260246000fd5b50919050565b613116806200024f6000396000f3fe608060405234801561001057600080fd5b50600436106101a35760003560e01c80636352211e116100ee578063b0d16ff811610097578063d539139311610071578063d5391393146103e9578063d547741f14610410578063e8bb8e6f14610423578063e985e9c51461043657600080fd5b8063b0d16ff8146103a3578063b88d4fde146103c3578063c87b56dd146103d657600080fd5b806395d89b41116100c857806395d89b4114610380578063a217fddf14610388578063a22cb4651461039057600080fd5b80636352211e1461031457806370a082311461032757806391d148541461033a57600080fd5b80632a55205a1161015057806342842e0e1161012a57806342842e0e146102db57806342966c68146102ee578063589a17431461030157600080fd5b80632a55205a146102765780632f2ff15d146102b557806336568abe146102c857600080fd5b8063095ea7b311610181578063095ea7b31461021d57806323b872dd14610232578063248a9ca31461024557600080fd5b806301ffc9a7146101a857806306fdde03146101d0578063081812fc146101e5575b600080fd5b6101bb6101b63660046129d1565b61047f565b60405190151581526020015b60405180910390f35b6101d86104db565b6040516101c79190612a64565b6101f86101f3366004612a77565b61056d565b60405173ffffffffffffffffffffffffffffffffffffffff90911681526020016101c7565b61023061022b366004612ab9565b61064c565b005b610230610240366004612ae3565b6107d9565b610268610253366004612a77565b60009081526007602052604090206001015490565b6040519081526020016101c7565b610289610284366004612b1f565b61087b565b6040805173ffffffffffffffffffffffffffffffffffffffff90931683526020830191909152016101c7565b6102306102c3366004612b41565b610963565b6102306102d6366004612b41565b610989565b6102306102e9366004612ae3565b610a3c565b6102306102fc366004612a77565b610a57565b6101f861030f366004612a77565b610af8565b6101f8610322366004612a77565b610bac565b610268610335366004612b6d565b610c5e565b6101bb610348366004612b41565b600091825260076020908152604080842073ffffffffffffffffffffffffffffffffffffffff93909316845291905290205460ff1690565b6101d8610d2c565b610268600081565b61023061039e366004612b88565b610d3b565b6103b66103b1366004612b6d565b610d46565b6040516101c79190612bc4565b6102306103d1366004612ccb565b610e0d565b6101d86103e4366004612a77565b610eb5565b6102687f9f2df0fed2c77648de5860a4cc508cd0818c85b8b8a1ab4ceeef8d981c8956a681565b61023061041e366004612b41565b610ec0565b610230610431366004612d47565b610ee6565b6101bb610444366004612dbd565b73ffffffffffffffffffffffffffffffffffffffff918216600090815260056020908152604080832093909416825291909152205460ff1690565b60007f2a55205a000000000000000000000000000000000000000000000000000000007fffffffff00000000000000000000000000000000000000000000000000000000831614806104d557506104d582611156565b92915050565b6060600080546104ea90612de7565b80601f016020809104026020016040519081016040528092919081815260200182805461051690612de7565b80156105635780601f1061053857610100808354040283529160200191610563565b820191906000526020600020905b81548152906001019060200180831161054657829003601f168201915b5050505050905090565b60008181526002602052604081205473ffffffffffffffffffffffffffffffffffffffff16610623576040517f08c379a000000000000000000000000000000000000000000000000000000000815260206004820152602c60248201527f4552433732313a20617070726f76656420717565727920666f72206e6f6e657860448201527f697374656e7420746f6b656e000000000000000000000000000000000000000060648201526084015b60405180910390fd5b5060009081526004602052604090205473ffffffffffffffffffffffffffffffffffffffff1690565b600061065782610bac565b90508073ffffffffffffffffffffffffffffffffffffffff168373ffffffffffffffffffffffffffffffffffffffff161415610715576040517f08c379a000000000000000000000000000000000000000000000000000000000815260206004820152602160248201527f4552433732313a20617070726f76616c20746f2063757272656e74206f776e6560448201527f7200000000000000000000000000000000000000000000000000000000000000606482015260840161061a565b3373ffffffffffffffffffffffffffffffffffffffff8216148061073e575061073e8133610444565b6107ca576040517f08c379a000000000000000000000000000000000000000000000000000000000815260206004820152603860248201527f4552433732313a20617070726f76652063616c6c6572206973206e6f74206f7760448201527f6e6572206e6f7220617070726f76656420666f7220616c6c0000000000000000606482015260840161061a565b6107d483836111ac565b505050565b6107e4335b8261124c565b610870576040517f08c379a000000000000000000000000000000000000000000000000000000000815260206004820152603160248201527f4552433732313a207472616e736665722063616c6c6572206973206e6f74206f60448201527f776e6572206e6f7220617070726f766564000000000000000000000000000000606482015260840161061a565b6107d48383836113bc565b600082815260026020526040812054819073ffffffffffffffffffffffffffffffffffffffff16610908576040517f08c379a000000000000000000000000000000000000000000000000000000000815260206004820152601c60248201527f4552433732313a20746f6b656e20646f6573206e6f7420657869737400000000604482015260640161061a565b600084815260096020908152604080832054600c9092529091205473ffffffffffffffffffffffffffffffffffffffff909116906127109061094e9061ffff1686612e6a565b6109589190612ed6565b915091509250929050565b60008281526007602052604090206001015461097f8133611623565b6107d483836116f5565b73ffffffffffffffffffffffffffffffffffffffff81163314610a2e576040517f08c379a000000000000000000000000000000000000000000000000000000000815260206004820152602f60248201527f416363657373436f6e74726f6c3a2063616e206f6e6c792072656e6f756e636560448201527f20726f6c657320666f722073656c660000000000000000000000000000000000606482015260840161061a565b610a3882826117e9565b5050565b6107d483838360405180602001604052806000815250610e0d565b610a60336107de565b610aec576040517f08c379a000000000000000000000000000000000000000000000000000000000815260206004820152603060248201527f4552433732314275726e61626c653a2063616c6c6572206973206e6f74206f7760448201527f6e6572206e6f7220617070726f76656400000000000000000000000000000000606482015260840161061a565b610af5816118a4565b50565b60008181526002602052604081205473ffffffffffffffffffffffffffffffffffffffff16610b83576040517f08c379a000000000000000000000000000000000000000000000000000000000815260206004820152601c60248201527f4552433732313a20746f6b656e20646f6573206e6f7420657869737400000000604482015260640161061a565b5060009081526009602052604090205473ffffffffffffffffffffffffffffffffffffffff1690565b60008181526002602052604081205473ffffffffffffffffffffffffffffffffffffffff16806104d5576040517f08c379a000000000000000000000000000000000000000000000000000000000815260206004820152602960248201527f4552433732313a206f776e657220717565727920666f72206e6f6e657869737460448201527f656e7420746f6b656e0000000000000000000000000000000000000000000000606482015260840161061a565b600073ffffffffffffffffffffffffffffffffffffffff8216610d03576040517f08c379a000000000000000000000000000000000000000000000000000000000815260206004820152602a60248201527f4552433732313a2062616c616e636520717565727920666f7220746865207a6560448201527f726f206164647265737300000000000000000000000000000000000000000000606482015260840161061a565b5073ffffffffffffffffffffffffffffffffffffffff1660009081526003602052604090205490565b6060600180546104ea90612de7565b610a383383836118ad565b73ffffffffffffffffffffffffffffffffffffffff81166000908152600a6020526040812060609190610d78906119db565b11610ddf576040517f08c379a000000000000000000000000000000000000000000000000000000000815260206004820152600d60248201527f4e6f7420612063726561746f7200000000000000000000000000000000000000604482015260640161061a565b73ffffffffffffffffffffffffffffffffffffffff82166000908152600a602052604090206104d5906119e5565b610e17338361124c565b610ea3576040517f08c379a000000000000000000000000000000000000000000000000000000000815260206004820152603160248201527f4552433732313a207472616e736665722063616c6c6572206973206e6f74206f60448201527f776e6572206e6f7220617070726f766564000000000000000000000000000000606482015260840161061a565b610eaf848484846119f9565b50505050565b60606104d582611a9c565b600082815260076020526040902060010154610edc8133611623565b6107d483836117e9565b82805160001415610f53576040517f08c379a000000000000000000000000000000000000000000000000000000000815260206004820152601f60248201527f53706563696669656420757269206d757374206265206e6f6e2d656d70747900604482015260640161061a565b7f9f2df0fed2c77648de5860a4cc508cd0818c85b8b8a1ab4ceeef8d981c8956a6610f7e8133611623565b6000848152600b602052604090205460ff1615610ff7576040517f08c379a000000000000000000000000000000000000000000000000000000000815260206004820152601260248201527f4475706c69636174656420636f6e74656e740000000000000000000000000000604482015260640161061a565b6127108361ffff1610611066576040517f08c379a000000000000000000000000000000000000000000000000000000000815260206004820152601260248201527f526f79616c7469657320746f6f20686967680000000000000000000000000000604482015260640161061a565b6000848152600b6020526040812080547fffffffffffffffffffffffffffffffffffffffffffffffffffffffffffffff001660011790556110a660085490565b90506110b6600880546001019055565b6000818152600c6020908152604080832080547fffffffffffffffffffffffffffffffffffffffffffffffffffffffffffff00001661ffff8916179055600982528083208054337fffffffffffffffffffffffff000000000000000000000000000000000000000090911681179091558352600a90915290206111399082611c4e565b506111443382611c5a565b61114e8187611c74565b505050505050565b60007fffffffff0000000000000000000000000000000000000000000000000000000082167f7965db0b0000000000000000000000000000000000000000000000000000000014806104d557506104d582611d44565b600081815260046020526040902080547fffffffffffffffffffffffff00000000000000000000000000000000000000001673ffffffffffffffffffffffffffffffffffffffff8416908117909155819061120682610bac565b73ffffffffffffffffffffffffffffffffffffffff167f8c5be1e5ebec7d5bd14f71427d1e84f3dd0314c0f7b2291e5b200ac8c7c3b92560405160405180910390a45050565b60008181526002602052604081205473ffffffffffffffffffffffffffffffffffffffff166112fd576040517f08c379a000000000000000000000000000000000000000000000000000000000815260206004820152602c60248201527f4552433732313a206f70657261746f7220717565727920666f72206e6f6e657860448201527f697374656e7420746f6b656e0000000000000000000000000000000000000000606482015260840161061a565b600061130883610bac565b90508073ffffffffffffffffffffffffffffffffffffffff168473ffffffffffffffffffffffffffffffffffffffff16148061137757508373ffffffffffffffffffffffffffffffffffffffff1661135f8461056d565b73ffffffffffffffffffffffffffffffffffffffff16145b806113b4575073ffffffffffffffffffffffffffffffffffffffff80821660009081526005602090815260408083209388168352929052205460ff165b949350505050565b8273ffffffffffffffffffffffffffffffffffffffff166113dc82610bac565b73ffffffffffffffffffffffffffffffffffffffff161461147f576040517f08c379a000000000000000000000000000000000000000000000000000000000815260206004820152602960248201527f4552433732313a207472616e73666572206f6620746f6b656e2074686174206960448201527f73206e6f74206f776e0000000000000000000000000000000000000000000000606482015260840161061a565b73ffffffffffffffffffffffffffffffffffffffff8216611521576040517f08c379a0000000000000000000000000000000000000000000000000000000008152602060048201526024808201527f4552433732313a207472616e7366657220746f20746865207a65726f2061646460448201527f7265737300000000000000000000000000000000000000000000000000000000606482015260840161061a565b61152c6000826111ac565b73ffffffffffffffffffffffffffffffffffffffff83166000908152600360205260408120805460019290611562908490612eea565b909155505073ffffffffffffffffffffffffffffffffffffffff8216600090815260036020526040812080546001929061159d908490612f01565b909155505060008181526002602052604080822080547fffffffffffffffffffffffff00000000000000000000000000000000000000001673ffffffffffffffffffffffffffffffffffffffff86811691821790925591518493918716917fddf252ad1be2c89b69c2b068fc378daa952ba7f163c4a11628f55a4df523b3ef91a4505050565b600082815260076020908152604080832073ffffffffffffffffffffffffffffffffffffffff8516845290915290205460ff16610a385761167b8173ffffffffffffffffffffffffffffffffffffffff166014611e27565b611686836020611e27565b604051602001611697929190612f19565b604080517fffffffffffffffffffffffffffffffffffffffffffffffffffffffffffffffe0818403018152908290527f08c379a000000000000000000000000000000000000000000000000000000000825261061a91600401612a64565b600082815260076020908152604080832073ffffffffffffffffffffffffffffffffffffffff8516845290915290205460ff16610a3857600082815260076020908152604080832073ffffffffffffffffffffffffffffffffffffffff85168452909152902080547fffffffffffffffffffffffffffffffffffffffffffffffffffffffffffffff0016600117905561178b3390565b73ffffffffffffffffffffffffffffffffffffffff168173ffffffffffffffffffffffffffffffffffffffff16837f2f8788117e7eff1d82e926ec794901d17c78024a50270940304540a733656f0d60405160405180910390a45050565b600082815260076020908152604080832073ffffffffffffffffffffffffffffffffffffffff8516845290915290205460ff1615610a3857600082815260076020908152604080832073ffffffffffffffffffffffffffffffffffffffff8516808552925280832080547fffffffffffffffffffffffffffffffffffffffffffffffffffffffffffffff0016905551339285917ff6391f5c32d9c69d2a47ea670b442974b53935d1edc7fd64eb21e047a839171b9190a45050565b610af58161206a565b8173ffffffffffffffffffffffffffffffffffffffff168373ffffffffffffffffffffffffffffffffffffffff161415611943576040517f08c379a000000000000000000000000000000000000000000000000000000000815260206004820152601960248201527f4552433732313a20617070726f766520746f2063616c6c657200000000000000604482015260640161061a565b73ffffffffffffffffffffffffffffffffffffffff83811660008181526005602090815260408083209487168084529482529182902080547fffffffffffffffffffffffffffffffffffffffffffffffffffffffffffffff001686151590811790915591519182527f17307eab39ab6107e8899845ad3d59bd9653f200f220920489ca2b5937696c31910160405180910390a3505050565b60006104d5825490565b606060006119f2836120aa565b9392505050565b611a048484846113bc565b611a1084848484612106565b610eaf576040517f08c379a000000000000000000000000000000000000000000000000000000000815260206004820152603260248201527f4552433732313a207472616e7366657220746f206e6f6e20455243373231526560448201527f63656976657220696d706c656d656e7465720000000000000000000000000000606482015260840161061a565b60008181526002602052604090205460609073ffffffffffffffffffffffffffffffffffffffff16611b50576040517f08c379a000000000000000000000000000000000000000000000000000000000815260206004820152603160248201527f45524337323155524953746f726167653a2055524920717565727920666f722060448201527f6e6f6e6578697374656e7420746f6b656e000000000000000000000000000000606482015260840161061a565b60008281526006602052604081208054611b6990612de7565b80601f0160208091040260200160405190810160405280929190818152602001828054611b9590612de7565b8015611be25780601f10611bb757610100808354040283529160200191611be2565b820191906000526020600020905b815481529060010190602001808311611bc557829003601f168201915b505050505090506000611c0060408051602081019091526000815290565b9050805160001415611c13575092915050565b815115611c45578082604051602001611c2d929190612f9a565b60405160208183030381529060405292505050919050565b6113b484612305565b60006119f28383612421565b610a38828260405180602001604052806000815250612470565b60008281526002602052604090205473ffffffffffffffffffffffffffffffffffffffff16611d25576040517f08c379a000000000000000000000000000000000000000000000000000000000815260206004820152602e60248201527f45524337323155524953746f726167653a2055524920736574206f66206e6f6e60448201527f6578697374656e7420746f6b656e000000000000000000000000000000000000606482015260840161061a565b600082815260066020908152604090912082516107d4928401906128d4565b60007fffffffff0000000000000000000000000000000000000000000000000000000082167f80ac58cd000000000000000000000000000000000000000000000000000000001480611dd757507fffffffff0000000000000000000000000000000000000000000000000000000082167f5b5e139f00000000000000000000000000000000000000000000000000000000145b806104d557507f01ffc9a7000000000000000000000000000000000000000000000000000000007fffffffff000000000000000000000000000000000000000000000000000000008316146104d5565b60606000611e36836002612e6a565b611e41906002612f01565b67ffffffffffffffff811115611e5957611e59612c08565b6040519080825280601f01601f191660200182016040528015611e83576020820181803683370190505b5090507f300000000000000000000000000000000000000000000000000000000000000081600081518110611eba57611eba612fc9565b60200101907effffffffffffffffffffffffffffffffffffffffffffffffffffffffffffff1916908160001a9053507f780000000000000000000000000000000000000000000000000000000000000081600181518110611f1d57611f1d612fc9565b60200101907effffffffffffffffffffffffffffffffffffffffffffffffffffffffffffff1916908160001a9053506000611f59846002612e6a565b611f64906001612f01565b90505b6001811115612001577f303132333435363738396162636465660000000000000000000000000000000085600f1660108110611fa557611fa5612fc9565b1a60f81b828281518110611fbb57611fbb612fc9565b60200101907effffffffffffffffffffffffffffffffffffffffffffffffffffffffffffff1916908160001a90535060049490941c93611ffa81612ff8565b9050611f67565b5083156119f2576040517f08c379a000000000000000000000000000000000000000000000000000000000815260206004820181905260248201527f537472696e67733a20686578206c656e67746820696e73756666696369656e74604482015260640161061a565b61207381612513565b6000818152600660205260409020805461208c90612de7565b159050610af5576000818152600660205260408120610af591612958565b6060816000018054806020026020016040519081016040528092919081815260200182805480156120fa57602002820191906000526020600020905b8154815260200190600101908083116120e6575b50505050509050919050565b600073ffffffffffffffffffffffffffffffffffffffff84163b156122fa576040517f150b7a0200000000000000000000000000000000000000000000000000000000815273ffffffffffffffffffffffffffffffffffffffff85169063150b7a029061217d90339089908890889060040161302d565b602060405180830381600087803b15801561219757600080fd5b505af19250505080156121e5575060408051601f3d9081017fffffffffffffffffffffffffffffffffffffffffffffffffffffffffffffffe01682019092526121e291810190613076565b60015b6122af573d808015612213576040519150601f19603f3d011682016040523d82523d6000602084013e612218565b606091505b5080516122a7576040517f08c379a000000000000000000000000000000000000000000000000000000000815260206004820152603260248201527f4552433732313a207472616e7366657220746f206e6f6e20455243373231526560448201527f63656976657220696d706c656d656e7465720000000000000000000000000000606482015260840161061a565b805181602001fd5b7fffffffff00000000000000000000000000000000000000000000000000000000167f150b7a02000000000000000000000000000000000000000000000000000000001490506113b4565b506001949350505050565b60008181526002602052604090205460609073ffffffffffffffffffffffffffffffffffffffff166123b9576040517f08c379a000000000000000000000000000000000000000000000000000000000815260206004820152602f60248201527f4552433732314d657461646174613a2055524920717565727920666f72206e6f60448201527f6e6578697374656e7420746f6b656e0000000000000000000000000000000000606482015260840161061a565b60006123d060408051602081019091526000815290565b905060008151116123f057604051806020016040528060008152506119f2565b806123fa846125e0565b60405160200161240b929190612f9a565b6040516020818303038152906040529392505050565b6000818152600183016020526040812054612468575081546001818101845560008481526020808220909301849055845484825282860190935260409020919091556104d5565b5060006104d5565b61247a8383612712565b6124876000848484612106565b6107d4576040517f08c379a000000000000000000000000000000000000000000000000000000000815260206004820152603260248201527f4552433732313a207472616e7366657220746f206e6f6e20455243373231526560448201527f63656976657220696d706c656d656e7465720000000000000000000000000000606482015260840161061a565b600061251e82610bac565b905061252b6000836111ac565b73ffffffffffffffffffffffffffffffffffffffff81166000908152600360205260408120805460019290612561908490612eea565b909155505060008281526002602052604080822080547fffffffffffffffffffffffff00000000000000000000000000000000000000001690555183919073ffffffffffffffffffffffffffffffffffffffff8416907fddf252ad1be2c89b69c2b068fc378daa952ba7f163c4a11628f55a4df523b3ef908390a45050565b60608161262057505060408051808201909152600181527f3000000000000000000000000000000000000000000000000000000000000000602082015290565b8160005b811561264a578061263481613093565b91506126439050600a83612ed6565b9150612624565b60008167ffffffffffffffff81111561266557612665612c08565b6040519080825280601f01601f19166020018201604052801561268f576020820181803683370190505b5090505b84156113b4576126a4600183612eea565b91506126b1600a866130cc565b6126bc906030612f01565b60f81b8183815181106126d1576126d1612fc9565b60200101907effffffffffffffffffffffffffffffffffffffffffffffffffffffffffffff1916908160001a90535061270b600a86612ed6565b9450612693565b73ffffffffffffffffffffffffffffffffffffffff821661278f576040517f08c379a000000000000000000000000000000000000000000000000000000000815260206004820181905260248201527f4552433732313a206d696e7420746f20746865207a65726f2061646472657373604482015260640161061a565b60008181526002602052604090205473ffffffffffffffffffffffffffffffffffffffff161561281b576040517f08c379a000000000000000000000000000000000000000000000000000000000815260206004820152601c60248201527f4552433732313a20746f6b656e20616c7265616479206d696e74656400000000604482015260640161061a565b73ffffffffffffffffffffffffffffffffffffffff82166000908152600360205260408120805460019290612851908490612f01565b909155505060008181526002602052604080822080547fffffffffffffffffffffffff00000000000000000000000000000000000000001673ffffffffffffffffffffffffffffffffffffffff861690811790915590518392907fddf252ad1be2c89b69c2b068fc378daa952ba7f163c4a11628f55a4df523b3ef908290a45050565b8280546128e090612de7565b90600052602060002090601f0160209004810192826129025760008555612948565b82601f1061291b57805160ff1916838001178555612948565b82800160010185558215612948579182015b8281111561294857825182559160200191906001019061292d565b5061295492915061298e565b5090565b50805461296490612de7565b6000825580601f10612974575050565b601f016020900490600052602060002090810190610af591905b5b80821115612954576000815560010161298f565b7fffffffff0000000000000000000000000000000000000000000000000000000081168114610af557600080fd5b6000602082840312156129e357600080fd5b81356119f2816129a3565b60005b83811015612a095781810151838201526020016129f1565b83811115610eaf5750506000910152565b60008151808452612a328160208601602086016129ee565b601f017fffffffffffffffffffffffffffffffffffffffffffffffffffffffffffffffe0169290920160200192915050565b6020815260006119f26020830184612a1a565b600060208284031215612a8957600080fd5b5035919050565b803573ffffffffffffffffffffffffffffffffffffffff81168114612ab457600080fd5b919050565b60008060408385031215612acc57600080fd5b612ad583612a90565b946020939093013593505050565b600080600060608486031215612af857600080fd5b612b0184612a90565b9250612b0f60208501612a90565b9150604084013590509250925092565b60008060408385031215612b3257600080fd5b50508035926020909101359150565b60008060408385031215612b5457600080fd5b82359150612b6460208401612a90565b90509250929050565b600060208284031215612b7f57600080fd5b6119f282612a90565b60008060408385031215612b9b57600080fd5b612ba483612a90565b915060208301358015158114612bb957600080fd5b809150509250929050565b6020808252825182820181905260009190848201906040850190845b81811015612bfc57835183529284019291840191600101612be0565b50909695505050505050565b7f4e487b7100000000000000000000000000000000000000000000000000000000600052604160045260246000fd5b600067ffffffffffffffff80841115612c5257612c52612c08565b604051601f85017fffffffffffffffffffffffffffffffffffffffffffffffffffffffffffffffe0908116603f01168101908282118183101715612c9857612c98612c08565b81604052809350858152868686011115612cb157600080fd5b858560208301376000602087830101525050509392505050565b60008060008060808587031215612ce157600080fd5b612cea85612a90565b9350612cf860208601612a90565b925060408501359150606085013567ffffffffffffffff811115612d1b57600080fd5b8501601f81018713612d2c57600080fd5b612d3b87823560208401612c37565b91505092959194509250565b600080600060608486031215612d5c57600080fd5b833567ffffffffffffffff811115612d7357600080fd5b8401601f81018613612d8457600080fd5b612d9386823560208401612c37565b93505060208401359150604084013561ffff81168114612db257600080fd5b809150509250925092565b60008060408385031215612dd057600080fd5b612dd983612a90565b9150612b6460208401612a90565b600181811c90821680612dfb57607f821691505b60208210811415612e35577f4e487b7100000000000000000000000000000000000000000000000000000000600052602260045260246000fd5b50919050565b7f4e487b7100000000000000000000000000000000000000000000000000000000600052601160045260246000fd5b6000817fffffffffffffffffffffffffffffffffffffffffffffffffffffffffffffffff0483118215151615612ea257612ea2612e3b565b500290565b7f4e487b7100000000000000000000000000000000000000000000000000000000600052601260045260246000fd5b600082612ee557612ee5612ea7565b500490565b600082821015612efc57612efc612e3b565b500390565b60008219821115612f1457612f14612e3b565b500190565b7f416363657373436f6e74726f6c3a206163636f756e7420000000000000000000815260008351612f518160178501602088016129ee565b7f206973206d697373696e6720726f6c65200000000000000000000000000000006017918401918201528351612f8e8160288401602088016129ee565b01602801949350505050565b60008351612fac8184602088016129ee565b835190830190612fc08183602088016129ee565b01949350505050565b7f4e487b7100000000000000000000000000000000000000000000000000000000600052603260045260246000fd5b60008161300757613007612e3b565b507fffffffffffffffffffffffffffffffffffffffffffffffffffffffffffffffff0190565b600073ffffffffffffffffffffffffffffffffffffffff80871683528086166020840152508360408301526080606083015261306c6080830184612a1a565b9695505050505050565b60006020828403121561308857600080fd5b81516119f2816129a3565b60007fffffffffffffffffffffffffffffffffffffffffffffffffffffffffffffffff8214156130c5576130c5612e3b565b5060010190565b6000826130db576130db612ea7565b50069056fea264697066735822122096a8250fe27af2a61d9513ac1a5394ff00356af87d5309f33f060bcd1dbf264d64736f6c63430008090033",
  "devdoc": {
    "custom:security-contact": "info@kreation.tech",
    "kind": "dev",
    "methods": {
      "approve(address,uint256)": {
        "details": "See {IERC721-approve}."
      },
      "balanceOf(address)": {
        "details": "See {IERC721-balanceOf}."
      },
      "burn(uint256)": {
        "details": "Burns `tokenId`. See {ERC721-_burn}. Requirements: - The caller must own `tokenId` or be an approved operator."
      },
      "getApproved(uint256)": {
        "details": "See {IERC721-getApproved}."
      },
      "getRoleAdmin(bytes32)": {
        "details": "Returns the admin role that controls `role`. See {grantRole} and {revokeRole}. To change a role's admin, use {_setRoleAdmin}."
      },
      "grantRole(bytes32,address)": {
        "details": "Grants `role` to `account`. If `account` had not been already granted `role`, emits a {RoleGranted} event. Requirements: - the caller must have ``role``'s admin role."
      },
      "hasRole(bytes32,address)": {
        "details": "Returns `true` if `account` has been granted `role`."
      },
      "isApprovedForAll(address,address)": {
        "details": "See {IERC721-isApprovedForAll}."
      },
      "name()": {
        "details": "See {IERC721Metadata-name}."
      },
      "ownerOf(uint256)": {
        "details": "See {IERC721-ownerOf}."
      },
      "renounceRole(bytes32,address)": {
        "details": "Revokes `role` from the calling account. Roles are often managed via {grantRole} and {revokeRole}: this function's purpose is to provide a mechanism for accounts to lose their privileges if they are compromised (such as when a trusted device is misplaced). If the calling account had been revoked `role`, emits a {RoleRevoked} event. Requirements: - the caller must be `account`."
      },
      "revokeRole(bytes32,address)": {
        "details": "Revokes `role` from `account`. If `account` had been granted `role`, emits a {RoleRevoked} event. Requirements: - the caller must have ``role``'s admin role."
      },
      "royaltyInfo(uint256,uint256)": {
        "params": {
          "tokenId": "the the id of the token sold",
          "value": "the sale price for this token"
        }
      },
      "safeTransferFrom(address,address,uint256)": {
        "details": "See {IERC721-safeTransferFrom}."
      },
      "safeTransferFrom(address,address,uint256,bytes)": {
        "details": "See {IERC721-safeTransferFrom}."
      },
      "setApprovalForAll(address,bool)": {
        "details": "See {IERC721-setApprovalForAll}."
      },
      "symbol()": {
        "details": "See {IERC721Metadata-symbol}."
      },
      "transferFrom(address,address,uint256)": {
        "details": "See {IERC721-transferFrom}."
      }
    },
    "version": 1
  },
  "userdoc": {
    "kind": "user",
    "methods": {
      "royaltyInfo(uint256,uint256)": {
        "notice": "ERC2981 - Gets royalty information for token"
      }
    },
    "version": 1
  },
  "storageLayout": {
    "storage": [
      {
        "astId": 429,
        "contract": "contracts/HofaNFT.sol:HofaNFT",
        "label": "_name",
        "offset": 0,
        "slot": "0",
        "type": "t_string_storage"
      },
      {
        "astId": 431,
        "contract": "contracts/HofaNFT.sol:HofaNFT",
        "label": "_symbol",
        "offset": 0,
        "slot": "1",
        "type": "t_string_storage"
      },
      {
        "astId": 435,
        "contract": "contracts/HofaNFT.sol:HofaNFT",
        "label": "_owners",
        "offset": 0,
        "slot": "2",
        "type": "t_mapping(t_uint256,t_address)"
      },
      {
        "astId": 439,
        "contract": "contracts/HofaNFT.sol:HofaNFT",
        "label": "_balances",
        "offset": 0,
        "slot": "3",
        "type": "t_mapping(t_address,t_uint256)"
      },
      {
        "astId": 443,
        "contract": "contracts/HofaNFT.sol:HofaNFT",
        "label": "_tokenApprovals",
        "offset": 0,
        "slot": "4",
        "type": "t_mapping(t_uint256,t_address)"
      },
      {
        "astId": 449,
        "contract": "contracts/HofaNFT.sol:HofaNFT",
        "label": "_operatorApprovals",
        "offset": 0,
        "slot": "5",
        "type": "t_mapping(t_address,t_mapping(t_address,t_bool))"
      },
      {
        "astId": 1411,
        "contract": "contracts/HofaNFT.sol:HofaNFT",
        "label": "_tokenURIs",
        "offset": 0,
        "slot": "6",
        "type": "t_mapping(t_uint256,t_string_storage)"
      },
      {
        "astId": 24,
        "contract": "contracts/HofaNFT.sol:HofaNFT",
        "label": "_roles",
        "offset": 0,
        "slot": "7",
        "type": "t_mapping(t_bytes32,t_struct(RoleData)19_storage)"
      },
      {
        "astId": 3301,
        "contract": "contracts/HofaNFT.sol:HofaNFT",
        "label": "_counter",
        "offset": 0,
        "slot": "8",
        "type": "t_struct(Counter)1878_storage"
      },
      {
        "astId": 3305,
        "contract": "contracts/HofaNFT.sol:HofaNFT",
        "label": "_creators",
        "offset": 0,
        "slot": "9",
        "type": "t_mapping(t_uint256,t_address)"
      },
      {
        "astId": 3310,
        "contract": "contracts/HofaNFT.sol:HofaNFT",
        "label": "_creatorTokens",
        "offset": 0,
        "slot": "10",
        "type": "t_mapping(t_address,t_struct(UintSet)3134_storage)"
      },
      {
        "astId": 3314,
        "contract": "contracts/HofaNFT.sol:HofaNFT",
        "label": "_contents",
        "offset": 0,
        "slot": "11",
        "type": "t_mapping(t_bytes32,t_bool)"
      },
      {
        "astId": 3318,
        "contract": "contracts/HofaNFT.sol:HofaNFT",
        "label": "_royalties",
        "offset": 0,
        "slot": "12",
        "type": "t_mapping(t_uint256,t_uint16)"
      }
    ],
    "types": {
      "t_address": {
        "encoding": "inplace",
        "label": "address",
        "numberOfBytes": "20"
      },
      "t_array(t_bytes32)dyn_storage": {
        "base": "t_bytes32",
        "encoding": "dynamic_array",
        "label": "bytes32[]",
        "numberOfBytes": "32"
      },
      "t_bool": {
        "encoding": "inplace",
        "label": "bool",
        "numberOfBytes": "1"
      },
      "t_bytes32": {
        "encoding": "inplace",
        "label": "bytes32",
        "numberOfBytes": "32"
      },
      "t_mapping(t_address,t_bool)": {
        "encoding": "mapping",
        "key": "t_address",
        "label": "mapping(address => bool)",
        "numberOfBytes": "32",
        "value": "t_bool"
      },
      "t_mapping(t_address,t_mapping(t_address,t_bool))": {
        "encoding": "mapping",
        "key": "t_address",
        "label": "mapping(address => mapping(address => bool))",
        "numberOfBytes": "32",
        "value": "t_mapping(t_address,t_bool)"
      },
      "t_mapping(t_address,t_struct(UintSet)3134_storage)": {
        "encoding": "mapping",
        "key": "t_address",
        "label": "mapping(address => struct EnumerableSet.UintSet)",
        "numberOfBytes": "32",
        "value": "t_struct(UintSet)3134_storage"
      },
      "t_mapping(t_address,t_uint256)": {
        "encoding": "mapping",
        "key": "t_address",
        "label": "mapping(address => uint256)",
        "numberOfBytes": "32",
        "value": "t_uint256"
      },
      "t_mapping(t_bytes32,t_bool)": {
        "encoding": "mapping",
        "key": "t_bytes32",
        "label": "mapping(bytes32 => bool)",
        "numberOfBytes": "32",
        "value": "t_bool"
      },
      "t_mapping(t_bytes32,t_struct(RoleData)19_storage)": {
        "encoding": "mapping",
        "key": "t_bytes32",
        "label": "mapping(bytes32 => struct AccessControl.RoleData)",
        "numberOfBytes": "32",
        "value": "t_struct(RoleData)19_storage"
      },
      "t_mapping(t_bytes32,t_uint256)": {
        "encoding": "mapping",
        "key": "t_bytes32",
        "label": "mapping(bytes32 => uint256)",
        "numberOfBytes": "32",
        "value": "t_uint256"
      },
      "t_mapping(t_uint256,t_address)": {
        "encoding": "mapping",
        "key": "t_uint256",
        "label": "mapping(uint256 => address)",
        "numberOfBytes": "32",
        "value": "t_address"
      },
      "t_mapping(t_uint256,t_string_storage)": {
        "encoding": "mapping",
        "key": "t_uint256",
        "label": "mapping(uint256 => string)",
        "numberOfBytes": "32",
        "value": "t_string_storage"
      },
      "t_mapping(t_uint256,t_uint16)": {
        "encoding": "mapping",
        "key": "t_uint256",
        "label": "mapping(uint256 => uint16)",
        "numberOfBytes": "32",
        "value": "t_uint16"
      },
      "t_string_storage": {
        "encoding": "bytes",
        "label": "string",
        "numberOfBytes": "32"
      },
      "t_struct(Counter)1878_storage": {
        "encoding": "inplace",
        "label": "struct Counters.Counter",
        "members": [
          {
            "astId": 1877,
            "contract": "contracts/HofaNFT.sol:HofaNFT",
            "label": "_value",
            "offset": 0,
            "slot": "0",
            "type": "t_uint256"
          }
        ],
        "numberOfBytes": "32"
      },
      "t_struct(RoleData)19_storage": {
        "encoding": "inplace",
        "label": "struct AccessControl.RoleData",
        "members": [
          {
            "astId": 16,
            "contract": "contracts/HofaNFT.sol:HofaNFT",
            "label": "members",
            "offset": 0,
            "slot": "0",
            "type": "t_mapping(t_address,t_bool)"
          },
          {
            "astId": 18,
            "contract": "contracts/HofaNFT.sol:HofaNFT",
            "label": "adminRole",
            "offset": 0,
            "slot": "1",
            "type": "t_bytes32"
          }
        ],
        "numberOfBytes": "64"
      },
      "t_struct(Set)2676_storage": {
        "encoding": "inplace",
        "label": "struct EnumerableSet.Set",
        "members": [
          {
            "astId": 2671,
            "contract": "contracts/HofaNFT.sol:HofaNFT",
            "label": "_values",
            "offset": 0,
            "slot": "0",
            "type": "t_array(t_bytes32)dyn_storage"
          },
          {
            "astId": 2675,
            "contract": "contracts/HofaNFT.sol:HofaNFT",
            "label": "_indexes",
            "offset": 0,
            "slot": "1",
            "type": "t_mapping(t_bytes32,t_uint256)"
          }
        ],
        "numberOfBytes": "64"
      },
      "t_struct(UintSet)3134_storage": {
        "encoding": "inplace",
        "label": "struct EnumerableSet.UintSet",
        "members": [
          {
            "astId": 3133,
            "contract": "contracts/HofaNFT.sol:HofaNFT",
            "label": "_inner",
            "offset": 0,
            "slot": "0",
            "type": "t_struct(Set)2676_storage"
          }
        ],
        "numberOfBytes": "64"
      },
      "t_uint16": {
        "encoding": "inplace",
        "label": "uint16",
        "numberOfBytes": "2"
      },
      "t_uint256": {
        "encoding": "inplace",
        "label": "uint256",
        "numberOfBytes": "32"
      }
    }
  }
}